{
  "contractName": "KendoApp",
  "abi": [
    {
      "inputs": [],
      "stateMutability": "nonpayable",
      "type": "constructor"
    },
    {
      "inputs": [
        {
          "internalType": "address",
          "name": "",
          "type": "address"
        }
      ],
      "name": "KendoPlayers",
      "outputs": [
        {
          "internalType": "string",
          "name": "Name",
          "type": "string"
        },
        {
          "internalType": "string",
          "name": "SurName",
          "type": "string"
        },
        {
          "internalType": "uint8",
          "name": "Age",
          "type": "uint8"
        },
        {
          "internalType": "string",
          "name": "TechnicalGrade",
          "type": "string"
        }
      ],
      "stateMutability": "view",
      "type": "function",
      "constant": true
    },
    {
      "inputs": [],
      "name": "owner",
      "outputs": [
        {
          "internalType": "address",
          "name": "",
          "type": "address"
        }
      ],
      "stateMutability": "view",
      "type": "function",
      "constant": true
    },
    {
      "inputs": [
        {
          "internalType": "address",
          "name": "addr",
          "type": "address"
        },
        {
          "internalType": "string",
          "name": "name",
          "type": "string"
        },
        {
          "internalType": "string",
          "name": "surname",
          "type": "string"
        },
        {
          "internalType": "uint8",
          "name": "age",
          "type": "uint8"
        },
        {
          "internalType": "string",
          "name": "technicalgrade",
          "type": "string"
        }
      ],
      "name": "addKendoPlayer",
      "outputs": [],
      "stateMutability": "nonpayable",
      "type": "function"
    },
    {
      "inputs": [
        {
          "internalType": "address",
          "name": "addr",
          "type": "address"
        }
      ],
      "name": "getKendoPlayer",
      "outputs": [
        {
          "components": [
            {
              "internalType": "string",
              "name": "Name",
              "type": "string"
            },
            {
              "internalType": "string",
              "name": "SurName",
              "type": "string"
            },
            {
              "internalType": "uint8",
              "name": "Age",
              "type": "uint8"
            },
            {
              "internalType": "string",
              "name": "TechnicalGrade",
              "type": "string"
            }
          ],
          "internalType": "struct KendoApp.KendoPlayer",
          "name": "",
          "type": "tuple"
        }
      ],
      "stateMutability": "view",
      "type": "function",
      "constant": true
    }
  ],
  "bytecode": "0x608060405234801561001057600080fd5b50336000806101000a81548173ffffffffffffffffffffffffffffffffffffffff021916908373ffffffffffffffffffffffffffffffffffffffff160217905550610cd3806100606000396000f3fe608060405234801561001057600080fd5b506004361061004c5760003560e01c80631045f7fb146100515780638da5cb5b1461006d578063be4057711461008b578063c8d9228f146100be575b600080fd5b61006b60048036038101906100669190610939565b6100ee565b005b610075610255565b6040516100829190610a17565b60405180910390f35b6100a560048036038101906100a09190610a32565b610279565b6040516100b59493929190610af6565b60405180910390f35b6100d860048036038101906100d39190610a32565b61044e565b6040516100e59190610c1a565b60405180910390f35b83600160008773ffffffffffffffffffffffffffffffffffffffff1673ffffffffffffffffffffffffffffffffffffffff168152602001908152602001600020600001908051906020019061014492919061067a565b5082600160008773ffffffffffffffffffffffffffffffffffffffff1673ffffffffffffffffffffffffffffffffffffffff168152602001908152602001600020600101908051906020019061019b92919061067a565b5081600160008773ffffffffffffffffffffffffffffffffffffffff1673ffffffffffffffffffffffffffffffffffffffff16815260200190815260200160002060020160006101000a81548160ff021916908360ff16021790555080600160008773ffffffffffffffffffffffffffffffffffffffff1673ffffffffffffffffffffffffffffffffffffffff168152602001908152602001600020600301908051906020019061024d92919061067a565b505050505050565b60008054906101000a900473ffffffffffffffffffffffffffffffffffffffff1681565b600160205280600052604060002060009150905080600001805461029c90610c6b565b80601f01602080910402602001604051908101604052809291908181526020018280546102c890610c6b565b80156103155780601f106102ea57610100808354040283529160200191610315565b820191906000526020600020905b8154815290600101906020018083116102f857829003601f168201915b50505050509080600101805461032a90610c6b565b80601f016020809104026020016040519081016040528092919081815260200182805461035690610c6b565b80156103a35780601f10610378576101008083540402835291602001916103a3565b820191906000526020600020905b81548152906001019060200180831161038657829003601f168201915b5050505050908060020160009054906101000a900460ff16908060030180546103cb90610c6b565b80601f01602080910402602001604051908101604052809291908181526020018280546103f790610c6b565b80156104445780601f1061041957610100808354040283529160200191610444565b820191906000526020600020905b81548152906001019060200180831161042757829003601f168201915b5050505050905084565b610456610700565b600160008373ffffffffffffffffffffffffffffffffffffffff1673ffffffffffffffffffffffffffffffffffffffff1681526020019081526020016000206040518060800160405290816000820180546104b090610c6b565b80601f01602080910402602001604051908101604052809291908181526020018280546104dc90610c6b565b80156105295780601f106104fe57610100808354040283529160200191610529565b820191906000526020600020905b81548152906001019060200180831161050c57829003601f168201915b5050505050815260200160018201805461054290610c6b565b80601f016020809104026020016040519081016040528092919081815260200182805461056e90610c6b565b80156105bb5780601f10610590576101008083540402835291602001916105bb565b820191906000526020600020905b81548152906001019060200180831161059e57829003601f168201915b505050505081526020016002820160009054906101000a900460ff1660ff1660ff1681526020016003820180546105f190610c6b565b80601f016020809104026020016040519081016040528092919081815260200182805461061d90610c6b565b801561066a5780601f1061063f5761010080835404028352916020019161066a565b820191906000526020600020905b81548152906001019060200180831161064d57829003601f168201915b5050505050815250509050919050565b82805461068690610c6b565b90600052602060002090601f0160209004810192826106a857600085556106ef565b82601f106106c157805160ff19168380011785556106ef565b828001600101855582156106ef579182015b828111156106ee5782518255916020019190600101906106d3565b5b5090506106fc919061072b565b5090565b60405180608001604052806060815260200160608152602001600060ff168152602001606081525090565b5b8082111561074457600081600090555060010161072c565b5090565b6000604051905090565b600080fd5b600080fd5b600073ffffffffffffffffffffffffffffffffffffffff82169050919050565b60006107878261075c565b9050919050565b6107978161077c565b81146107a257600080fd5b50565b6000813590506107b48161078e565b92915050565b600080fd5b600080fd5b6000601f19601f8301169050919050565b7f4e487b7100000000000000000000000000000000000000000000000000000000600052604160045260246000fd5b61080d826107c4565b810181811067ffffffffffffffff8211171561082c5761082b6107d5565b5b80604052505050565b600061083f610748565b905061084b8282610804565b919050565b600067ffffffffffffffff82111561086b5761086a6107d5565b5b610874826107c4565b9050602081019050919050565b82818337600083830152505050565b60006108a361089e84610850565b610835565b9050828152602081018484840111156108bf576108be6107bf565b5b6108ca848285610881565b509392505050565b600082601f8301126108e7576108e66107ba565b5b81356108f7848260208601610890565b91505092915050565b600060ff82169050919050565b61091681610900565b811461092157600080fd5b50565b6000813590506109338161090d565b92915050565b600080600080600060a0868803121561095557610954610752565b5b6000610963888289016107a5565b955050602086013567ffffffffffffffff81111561098457610983610757565b5b610990888289016108d2565b945050604086013567ffffffffffffffff8111156109b1576109b0610757565b5b6109bd888289016108d2565b93505060606109ce88828901610924565b925050608086013567ffffffffffffffff8111156109ef576109ee610757565b5b6109fb888289016108d2565b9150509295509295909350565b610a118161077c565b82525050565b6000602082019050610a2c6000830184610a08565b92915050565b600060208284031215610a4857610a47610752565b5b6000610a56848285016107a5565b91505092915050565b600081519050919050565b600082825260208201905092915050565b60005b83811015610a99578082015181840152602081019050610a7e565b83811115610aa8576000848401525b50505050565b6000610ab982610a5f565b610ac38185610a6a565b9350610ad3818560208601610a7b565b610adc816107c4565b840191505092915050565b610af081610900565b82525050565b60006080820190508181036000830152610b108187610aae565b90508181036020830152610b248186610aae565b9050610b336040830185610ae7565b8181036060830152610b458184610aae565b905095945050505050565b600082825260208201905092915050565b6000610b6c82610a5f565b610b768185610b50565b9350610b86818560208601610a7b565b610b8f816107c4565b840191505092915050565b610ba381610900565b82525050565b60006080830160008301518482036000860152610bc68282610b61565b91505060208301518482036020860152610be08282610b61565b9150506040830151610bf56040860182610b9a565b5060608301518482036060860152610c0d8282610b61565b9150508091505092915050565b60006020820190508181036000830152610c348184610ba9565b905092915050565b7f4e487b7100000000000000000000000000000000000000000000000000000000600052602260045260246000fd5b60006002820490506001821680610c8357607f821691505b60208210811415610c9757610c96610c3c565b5b5091905056fea264697066735822122069f5d227af1a6a31b57f89ec4ea629d60f9b644855c757411a8e245c60d181b364736f6c634300080c0033",
  "immutableReferences": {},
  "source": "// SPDX-License-Identifier: MIT\npragma solidity >=0.4.22 <0.9.0;\n\ncontract KendoApp {\n  address public owner;\n\n  struct KendoPlayer{\n        string Name;\n        string SurName;\n        uint8  Age;\n        string TechnicalGrade;\n    }\n\n  mapping(address => KendoPlayer) public KendoPlayers; \n\n\n  constructor() {\n        owner = msg.sender;\n  }\n\n  function addKendoPlayer(address addr, string memory name, string memory surname,uint8 age, string memory technicalgrade) external {\n      //Voters[addr].CanVote = true;\n      KendoPlayers[addr].Name = name;\n      KendoPlayers[addr].SurName = surname;\n      KendoPlayers[addr].Age = age;\n      KendoPlayers[addr].TechnicalGrade = technicalgrade;\n  }\n\n function getKendoPlayer(address addr) external view returns(KendoPlayer memory){\n      return KendoPlayers[addr];\n  }\n\n\n}\n",
  "sourcePath": "/home/rabeles/Downloads/Project_Kendo_Ether/contracts/KendoApp.sol",
  "compiler": {
    "name": "solc",
    "version": "0.8.12+commit.f00d7308.Emscripten.clang"
  },
  "schemaVersion": "3.4.6",
  "updatedAt": "2022-03-22T08:33:08.438Z",
  "networkType": "ethereum",
  "devdoc": {
    "kind": "dev",
    "methods": {},
    "version": 1
  },
  "userdoc": {
    "kind": "user",
    "methods": {},
    "version": 1
  }
}